{
  "_format": "hh-sol-artifact-1",
  "contractName": "Slayers",
  "sourceName": "contracts/Slayers.sol",
  "abi": [
    {
      "inputs": [
        {
          "internalType": "string[]",
          "name": "characterNames",
          "type": "string[]"
        },
        {
          "internalType": "string[]",
          "name": "characterImageURIs",
          "type": "string[]"
        },
        {
          "internalType": "uint256[]",
          "name": "characterHp",
          "type": "uint256[]"
        },
        {
          "internalType": "uint256[]",
          "name": "characterAttackDmg",
          "type": "uint256[]"
        },
        {
          "internalType": "string",
          "name": "bossName",
          "type": "string"
        },
        {
          "internalType": "string",
          "name": "bossImageURI",
          "type": "string"
        },
        {
          "internalType": "uint256",
          "name": "bossHp",
          "type": "uint256"
        },
        {
          "internalType": "uint256",
          "name": "bossAttackDamage",
          "type": "uint256"
        }
      ],
      "stateMutability": "nonpayable",
      "type": "constructor"
    },
    {
      "anonymous": false,
      "inputs": [
        {
          "indexed": true,
          "internalType": "address",
          "name": "owner",
          "type": "address"
        },
        {
          "indexed": true,
          "internalType": "address",
          "name": "approved",
          "type": "address"
        },
        {
          "indexed": true,
          "internalType": "uint256",
          "name": "tokenId",
          "type": "uint256"
        }
      ],
      "name": "Approval",
      "type": "event"
    },
    {
      "anonymous": false,
      "inputs": [
        {
          "indexed": true,
          "internalType": "address",
          "name": "owner",
          "type": "address"
        },
        {
          "indexed": true,
          "internalType": "address",
          "name": "operator",
          "type": "address"
        },
        {
          "indexed": false,
          "internalType": "bool",
          "name": "approved",
          "type": "bool"
        }
      ],
      "name": "ApprovalForAll",
      "type": "event"
    },
    {
      "anonymous": false,
      "inputs": [
        {
          "indexed": false,
          "internalType": "address",
          "name": "sender",
          "type": "address"
        },
        {
          "indexed": false,
          "internalType": "string",
          "name": "attackClass",
          "type": "string"
        },
        {
          "indexed": false,
          "internalType": "uint256",
          "name": "attackDamage",
          "type": "uint256"
        }
      ],
      "name": "AttackClass",
      "type": "event"
    },
    {
      "anonymous": false,
      "inputs": [
        {
          "indexed": false,
          "internalType": "address",
          "name": "sender",
          "type": "address"
        },
        {
          "indexed": false,
          "internalType": "uint256",
          "name": "newBossHp",
          "type": "uint256"
        },
        {
          "indexed": false,
          "internalType": "uint256",
          "name": "newPlayerHp",
          "type": "uint256"
        }
      ],
      "name": "AttackComplete",
      "type": "event"
    },
    {
      "anonymous": false,
      "inputs": [
        {
          "indexed": false,
          "internalType": "address",
          "name": "sender",
          "type": "address"
        },
        {
          "indexed": false,
          "internalType": "uint256",
          "name": "tokenId",
          "type": "uint256"
        },
        {
          "indexed": false,
          "internalType": "uint256",
          "name": "characterIndex",
          "type": "uint256"
        }
      ],
      "name": "CharacterNFTMinted",
      "type": "event"
    },
    {
      "anonymous": false,
      "inputs": [
        {
          "indexed": true,
          "internalType": "address",
          "name": "from",
          "type": "address"
        },
        {
          "indexed": true,
          "internalType": "address",
          "name": "to",
          "type": "address"
        },
        {
          "indexed": true,
          "internalType": "uint256",
          "name": "tokenId",
          "type": "uint256"
        }
      ],
      "name": "Transfer",
      "type": "event"
    },
    {
      "inputs": [
        {
          "internalType": "address",
          "name": "to",
          "type": "address"
        },
        {
          "internalType": "uint256",
          "name": "tokenId",
          "type": "uint256"
        }
      ],
      "name": "approve",
      "outputs": [],
      "stateMutability": "nonpayable",
      "type": "function"
    },
    {
      "inputs": [],
      "name": "attackBoss",
      "outputs": [],
      "stateMutability": "nonpayable",
      "type": "function"
    },
    {
      "inputs": [
        {
          "internalType": "address",
          "name": "owner",
          "type": "address"
        }
      ],
      "name": "balanceOf",
      "outputs": [
        {
          "internalType": "uint256",
          "name": "",
          "type": "uint256"
        }
      ],
      "stateMutability": "view",
      "type": "function"
    },
    {
      "inputs": [],
      "name": "bigBoss",
      "outputs": [
        {
          "internalType": "string",
          "name": "name",
          "type": "string"
        },
        {
          "internalType": "string",
          "name": "imageURI",
          "type": "string"
        },
        {
          "internalType": "uint256",
          "name": "hp",
          "type": "uint256"
        },
        {
          "internalType": "uint256",
          "name": "maxHp",
          "type": "uint256"
        },
        {
          "internalType": "uint256",
          "name": "attackDamage",
          "type": "uint256"
        }
      ],
      "stateMutability": "view",
      "type": "function"
    },
    {
      "inputs": [],
      "name": "checkIfUserHasNFT",
      "outputs": [
        {
          "components": [
            {
              "internalType": "uint256",
              "name": "characterIndex",
              "type": "uint256"
            },
            {
              "internalType": "string",
              "name": "name",
              "type": "string"
            },
            {
              "internalType": "string",
              "name": "imageURI",
              "type": "string"
            },
            {
              "internalType": "uint256",
              "name": "hp",
              "type": "uint256"
            },
            {
              "internalType": "uint256",
              "name": "maxHp",
              "type": "uint256"
            },
            {
              "internalType": "uint256",
              "name": "attackDamage",
              "type": "uint256"
            }
          ],
          "internalType": "struct Slayers.CharacterAttributes",
          "name": "",
          "type": "tuple"
        }
      ],
      "stateMutability": "view",
      "type": "function"
    },
    {
      "inputs": [],
      "name": "getAllDefaultCharacters",
      "outputs": [
        {
          "components": [
            {
              "internalType": "uint256",
              "name": "characterIndex",
              "type": "uint256"
            },
            {
              "internalType": "string",
              "name": "name",
              "type": "string"
            },
            {
              "internalType": "string",
              "name": "imageURI",
              "type": "string"
            },
            {
              "internalType": "uint256",
              "name": "hp",
              "type": "uint256"
            },
            {
              "internalType": "uint256",
              "name": "maxHp",
              "type": "uint256"
            },
            {
              "internalType": "uint256",
              "name": "attackDamage",
              "type": "uint256"
            }
          ],
          "internalType": "struct Slayers.CharacterAttributes[]",
          "name": "",
          "type": "tuple[]"
        }
      ],
      "stateMutability": "view",
      "type": "function"
    },
    {
      "inputs": [
        {
          "internalType": "uint256",
          "name": "tokenId",
          "type": "uint256"
        }
      ],
      "name": "getApproved",
      "outputs": [
        {
          "internalType": "address",
          "name": "",
          "type": "address"
        }
      ],
      "stateMutability": "view",
      "type": "function"
    },
    {
      "inputs": [],
      "name": "getBigBoss",
      "outputs": [
        {
          "components": [
            {
              "internalType": "string",
              "name": "name",
              "type": "string"
            },
            {
              "internalType": "string",
              "name": "imageURI",
              "type": "string"
            },
            {
              "internalType": "uint256",
              "name": "hp",
              "type": "uint256"
            },
            {
              "internalType": "uint256",
              "name": "maxHp",
              "type": "uint256"
            },
            {
              "internalType": "uint256",
              "name": "attackDamage",
              "type": "uint256"
            }
          ],
          "internalType": "struct Slayers.BigBoss",
          "name": "",
          "type": "tuple"
        }
      ],
      "stateMutability": "view",
      "type": "function"
    },
    {
      "inputs": [
        {
          "internalType": "address",
          "name": "owner",
          "type": "address"
        },
        {
          "internalType": "address",
          "name": "operator",
          "type": "address"
        }
      ],
      "name": "isApprovedForAll",
      "outputs": [
        {
          "internalType": "bool",
          "name": "",
          "type": "bool"
        }
      ],
      "stateMutability": "view",
      "type": "function"
    },
    {
      "inputs": [
        {
          "internalType": "uint256",
          "name": "_characterIndex",
          "type": "uint256"
        }
      ],
      "name": "mintCharacterNFT",
      "outputs": [],
      "stateMutability": "nonpayable",
      "type": "function"
    },
    {
      "inputs": [],
      "name": "name",
      "outputs": [
        {
          "internalType": "string",
          "name": "",
          "type": "string"
        }
      ],
      "stateMutability": "view",
      "type": "function"
    },
    {
      "inputs": [
        {
          "internalType": "uint256",
          "name": "",
          "type": "uint256"
        }
      ],
      "name": "nftHolderAttributes",
      "outputs": [
        {
          "internalType": "uint256",
          "name": "characterIndex",
          "type": "uint256"
        },
        {
          "internalType": "string",
          "name": "name",
          "type": "string"
        },
        {
          "internalType": "string",
          "name": "imageURI",
          "type": "string"
        },
        {
          "internalType": "uint256",
          "name": "hp",
          "type": "uint256"
        },
        {
          "internalType": "uint256",
          "name": "maxHp",
          "type": "uint256"
        },
        {
          "internalType": "uint256",
          "name": "attackDamage",
          "type": "uint256"
        }
      ],
      "stateMutability": "view",
      "type": "function"
    },
    {
      "inputs": [
        {
          "internalType": "address",
          "name": "",
          "type": "address"
        }
      ],
      "name": "nftHolders",
      "outputs": [
        {
          "internalType": "uint256",
          "name": "",
          "type": "uint256"
        }
      ],
      "stateMutability": "view",
      "type": "function"
    },
    {
      "inputs": [
        {
          "internalType": "uint256",
          "name": "tokenId",
          "type": "uint256"
        }
      ],
      "name": "ownerOf",
      "outputs": [
        {
          "internalType": "address",
          "name": "",
          "type": "address"
        }
      ],
      "stateMutability": "view",
      "type": "function"
    },
    {
      "inputs": [
        {
          "internalType": "address",
          "name": "from",
          "type": "address"
        },
        {
          "internalType": "address",
          "name": "to",
          "type": "address"
        },
        {
          "internalType": "uint256",
          "name": "tokenId",
          "type": "uint256"
        }
      ],
      "name": "safeTransferFrom",
      "outputs": [],
      "stateMutability": "nonpayable",
      "type": "function"
    },
    {
      "inputs": [
        {
          "internalType": "address",
          "name": "from",
          "type": "address"
        },
        {
          "internalType": "address",
          "name": "to",
          "type": "address"
        },
        {
          "internalType": "uint256",
          "name": "tokenId",
          "type": "uint256"
        },
        {
          "internalType": "bytes",
          "name": "_data",
          "type": "bytes"
        }
      ],
      "name": "safeTransferFrom",
      "outputs": [],
      "stateMutability": "nonpayable",
      "type": "function"
    },
    {
      "inputs": [
        {
          "internalType": "address",
          "name": "operator",
          "type": "address"
        },
        {
          "internalType": "bool",
          "name": "approved",
          "type": "bool"
        }
      ],
      "name": "setApprovalForAll",
      "outputs": [],
      "stateMutability": "nonpayable",
      "type": "function"
    },
    {
      "inputs": [
        {
          "internalType": "bytes4",
          "name": "interfaceId",
          "type": "bytes4"
        }
      ],
      "name": "supportsInterface",
      "outputs": [
        {
          "internalType": "bool",
          "name": "",
          "type": "bool"
        }
      ],
      "stateMutability": "view",
      "type": "function"
    },
    {
      "inputs": [],
      "name": "symbol",
      "outputs": [
        {
          "internalType": "string",
          "name": "",
          "type": "string"
        }
      ],
      "stateMutability": "view",
      "type": "function"
    },
    {
      "inputs": [
        {
          "internalType": "uint256",
          "name": "_tokenId",
          "type": "uint256"
        }
      ],
      "name": "tokenURI",
      "outputs": [
        {
          "internalType": "string",
          "name": "",
          "type": "string"
        }
      ],
      "stateMutability": "view",
      "type": "function"
    },
    {
      "inputs": [
        {
          "internalType": "address",
          "name": "from",
          "type": "address"
        },
        {
          "internalType": "address",
          "name": "to",
          "type": "address"
        },
        {
          "internalType": "uint256",
          "name": "tokenId",
          "type": "uint256"
        }
      ],
      "name": "transferFrom",
      "outputs": [],
      "stateMutability": "nonpayable",
      "type": "function"
    }
  ],
  "bytecode": "0x608060405260644442620000149190620005e1565b6200002091906200064b565b600b553480156200003057600080fd5b506040516200605338038062006053833981810160405281019062000056919062000a19565b6040518060400160405280600781526020017f536c6179657273000000000000000000000000000000000000000000000000008152506040518060400160405280600481526020017f534c4159000000000000000000000000000000000000000000000000000000008152508160009081620000d3919062000ddd565b508060019081620000e5919062000ddd565b5050506040518060a00160405280858152602001848152602001838152602001838152602001828152506006600082015181600001908162000128919062000ddd565b50602082015181600101908162000140919062000ddd565b5060408201518160020155606082015181600301556080820151816004015590505060005b88518110156200049757600d6040518060c001604052808381526020018b848151811062000198576200019762000ec4565b5b602002602001015181526020018a8481518110620001bb57620001ba62000ec4565b5b60200260200101518152602001898481518110620001de57620001dd62000ec4565b5b6020026020010151815260200189848151811062000201576200020062000ec4565b5b6020026020010151815260200188848151811062000224576200022362000ec4565b5b6020026020010151815250908060018154018082558091505060019003906000526020600020906006020160009091909190915060008201518160000155602082015181600101908162000279919062000ddd565b50604082015181600201908162000291919062000ddd565b50606082015181600301556080820151816004015560a0820151816005015550506000600d8281548110620002cb57620002ca62000ec4565b5b90600052602060002090600602016040518060c001604052908160008201548152602001600182018054620003009062000bd6565b80601f01602080910402602001604051908101604052809291908181526020018280546200032e9062000bd6565b80156200037f5780601f1062000353576101008083540402835291602001916200037f565b820191906000526020600020905b8154815290600101906020018083116200036157829003601f168201915b505050505081526020016002820180546200039a9062000bd6565b80601f0160208091040260200160405190810160405280929190818152602001828054620003c89062000bd6565b8015620004195780601f10620003ed5761010080835404028352916020019162000419565b820191906000526020600020905b815481529060010190602001808311620003fb57829003601f168201915b5050505050815260200160038201548152602001600482015481526020016005820154815250509050620004806040518060600160405280602581526020016200602e60259139826020015183606001518460400151620004bd60201b62001ec41760201c565b5080806200048e9062000ef3565b91505062000165565b50620004af600c6200056960201b62001f661760201c565b505050505050505062001005565b6200056384848484604051602401620004da949392919062000fa3565b6040516020818303038152906040527f8d142cdd000000000000000000000000000000000000000000000000000000007bffffffffffffffffffffffffffffffffffffffffffffffffffffffff19166020820180517bffffffffffffffffffffffffffffffffffffffffffffffffffffffff83818316178352505050506200057f60201b60201c565b50505050565b6001816000016000828254019250508190555050565b60008151905060006a636f6e736f6c652e6c6f679050602083016000808483855afa5050505050565b6000819050919050565b7f4e487b7100000000000000000000000000000000000000000000000000000000600052601160045260246000fd5b6000620005ee82620005a8565b9150620005fb83620005a8565b9250828201905080821115620006165762000615620005b2565b5b92915050565b7f4e487b7100000000000000000000000000000000000000000000000000000000600052601260045260246000fd5b60006200065882620005a8565b91506200066583620005a8565b9250826200067857620006776200061c565b5b828206905092915050565b6000604051905090565b600080fd5b600080fd5b600080fd5b6000601f19601f8301169050919050565b7f4e487b7100000000000000000000000000000000000000000000000000000000600052604160045260246000fd5b620006e7826200069c565b810181811067ffffffffffffffff82111715620007095762000708620006ad565b5b80604052505050565b60006200071e62000683565b90506200072c8282620006dc565b919050565b600067ffffffffffffffff8211156200074f576200074e620006ad565b5b602082029050602081019050919050565b600080fd5b600080fd5b600067ffffffffffffffff821115620007885762000787620006ad565b5b62000793826200069c565b9050602081019050919050565b60005b83811015620007c0578082015181840152602081019050620007a3565b60008484015250505050565b6000620007e3620007dd846200076a565b62000712565b90508281526020810184848401111562000802576200080162000765565b5b6200080f848285620007a0565b509392505050565b600082601f8301126200082f576200082e62000697565b5b815162000841848260208601620007cc565b91505092915050565b6000620008616200085b8462000731565b62000712565b9050808382526020820190506020840283018581111562000887576200088662000760565b5b835b81811015620008d557805167ffffffffffffffff811115620008b057620008af62000697565b5b808601620008bf898262000817565b8552602085019450505060208101905062000889565b5050509392505050565b600082601f830112620008f757620008f662000697565b5b8151620009098482602086016200084a565b91505092915050565b600067ffffffffffffffff82111562000930576200092f620006ad565b5b602082029050602081019050919050565b6200094c81620005a8565b81146200095857600080fd5b50565b6000815190506200096c8162000941565b92915050565b600062000989620009838462000912565b62000712565b90508083825260208201905060208402830185811115620009af57620009ae62000760565b5b835b81811015620009dc5780620009c788826200095b565b845260208401935050602081019050620009b1565b5050509392505050565b600082601f830112620009fe57620009fd62000697565b5b815162000a1084826020860162000972565b91505092915050565b600080600080600080600080610100898b03121562000a3d5762000a3c6200068d565b5b600089015167ffffffffffffffff81111562000a5e5762000a5d62000692565b5b62000a6c8b828c01620008df565b985050602089015167ffffffffffffffff81111562000a905762000a8f62000692565b5b62000a9e8b828c01620008df565b975050604089015167ffffffffffffffff81111562000ac25762000ac162000692565b5b62000ad08b828c01620009e6565b965050606089015167ffffffffffffffff81111562000af45762000af362000692565b5b62000b028b828c01620009e6565b955050608089015167ffffffffffffffff81111562000b265762000b2562000692565b5b62000b348b828c0162000817565b94505060a089015167ffffffffffffffff81111562000b585762000b5762000692565b5b62000b668b828c0162000817565b93505060c062000b798b828c016200095b565b92505060e062000b8c8b828c016200095b565b9150509295985092959890939650565b600081519050919050565b7f4e487b7100000000000000000000000000000000000000000000000000000000600052602260045260246000fd5b6000600282049050600182168062000bef57607f821691505b60208210810362000c055762000c0462000ba7565b5b50919050565b60008190508160005260206000209050919050565b60006020601f8301049050919050565b600082821b905092915050565b60006008830262000c6f7fffffffffffffffffffffffffffffffffffffffffffffffffffffffffffffffff8262000c30565b62000c7b868362000c30565b95508019841693508086168417925050509392505050565b6000819050919050565b600062000cbe62000cb862000cb284620005a8565b62000c93565b620005a8565b9050919050565b6000819050919050565b62000cda8362000c9d565b62000cf262000ce98262000cc5565b84845462000c3d565b825550505050565b600090565b62000d0962000cfa565b62000d1681848462000ccf565b505050565b5b8181101562000d3e5762000d3260008262000cff565b60018101905062000d1c565b5050565b601f82111562000d8d5762000d578162000c0b565b62000d628462000c20565b8101602085101562000d72578190505b62000d8a62000d818562000c20565b83018262000d1b565b50505b505050565b600082821c905092915050565b600062000db26000198460080262000d92565b1980831691505092915050565b600062000dcd838362000d9f565b9150826002028217905092915050565b62000de88262000b9c565b67ffffffffffffffff81111562000e045762000e03620006ad565b5b62000e10825462000bd6565b62000e1d82828562000d42565b600060209050601f83116001811462000e55576000841562000e40578287015190505b62000e4c858262000dbf565b86555062000ebc565b601f19841662000e658662000c0b565b60005b8281101562000e8f5784890151825560018201915060208501945060208101905062000e68565b8683101562000eaf578489015162000eab601f89168262000d9f565b8355505b6001600288020188555050505b505050505050565b7f4e487b7100000000000000000000000000000000000000000000000000000000600052603260045260246000fd5b600062000f0082620005a8565b91507fffffffffffffffffffffffffffffffffffffffffffffffffffffffffffffffff820362000f355762000f34620005b2565b5b600182019050919050565b600082825260208201905092915050565b600062000f5e8262000b9c565b62000f6a818562000f40565b935062000f7c818560208601620007a0565b62000f87816200069c565b840191505092915050565b62000f9d81620005a8565b82525050565b6000608082019050818103600083015262000fbf818762000f51565b9050818103602083015262000fd5818662000f51565b905062000fe6604083018562000f92565b818103606083015262000ffa818462000f51565b905095945050505050565b61501980620010156000396000f3fe608060405234801561001057600080fd5b50600436106101375760003560e01c806395d89b41116100b8578063b953084e1161007c578063b953084e14610369578063c87b56dd14610387578063c8cf27f4146103b7578063d4f24c5b146103d5578063e985e9c5146103df578063f8b81ef71461040f57610137565b806395d89b41146102bc57806398da4c95146102da578063a22cb4651461030f578063a9c326791461032b578063b88d4fde1461034d57610137565b806323b872dd116100ff57806323b872dd146101f457806342842e0e146102105780636352211e1461022c57806370a082311461025c5780637df124a11461028c57610137565b806301ffc9a71461013c5780630665f9611461016c57806306fdde031461018a578063081812fc146101a8578063095ea7b3146101d8575b600080fd5b610156600480360381019061015191906130e8565b61042b565b6040516101639190613130565b60405180910390f35b61017461050d565b6040516101819190613271565b60405180910390f35b610192610669565b60405161019f91906132dd565b60405180910390f35b6101c260048036038101906101bd919061332b565b6106fb565b6040516101cf9190613399565b60405180910390f35b6101f260048036038101906101ed91906133e0565b610780565b005b61020e60048036038101906102099190613420565b610897565b005b61022a60048036038101906102259190613420565b6108f7565b005b6102466004803603810190610241919061332b565b610917565b6040516102539190613399565b60405180910390f35b61027660048036038101906102719190613473565b6109c8565b60405161028391906134af565b60405180910390f35b6102a660048036038101906102a19190613473565b610a7f565b6040516102b391906134af565b60405180910390f35b6102c4610a97565b6040516102d191906132dd565b60405180910390f35b6102f460048036038101906102ef919061332b565b610b29565b604051610306969594939291906134ca565b60405180910390f35b61032960048036038101906103249190613565565b610c75565b005b610333610c8b565b6040516103449594939291906135a5565b60405180910390f35b6103676004803603810190610362919061373b565b610dbf565b005b610371610e21565b60405161037e9190613910565b60405180910390f35b6103a1600480360381019061039c919061332b565b610fcc565b6040516103ae91906132dd565b60405180910390f35b6103bf6111e7565b6040516103cc91906139c2565b60405180910390f35b6103dd6113bf565b005b6103f960048036038101906103f491906139e4565b611ac0565b6040516104069190613130565b60405180910390f35b6104296004803603810190610424919061332b565b611b54565b005b60007f80ac58cd000000000000000000000000000000000000000000000000000000007bffffffffffffffffffffffffffffffffffffffffffffffffffffffff1916827bffffffffffffffffffffffffffffffffffffffffffffffffffffffff191614806104f657507f5b5e139f000000000000000000000000000000000000000000000000000000007bffffffffffffffffffffffffffffffffffffffffffffffffffffffff1916827bffffffffffffffffffffffffffffffffffffffffffffffffffffffff1916145b80610506575061050582611f7c565b5b9050919050565b610515613017565b60066040518060a001604052908160008201805461053290613a53565b80601f016020809104026020016040519081016040528092919081815260200182805461055e90613a53565b80156105ab5780601f10610580576101008083540402835291602001916105ab565b820191906000526020600020905b81548152906001019060200180831161058e57829003601f168201915b505050505081526020016001820180546105c490613a53565b80601f01602080910402602001604051908101604052809291908181526020018280546105f090613a53565b801561063d5780601f106106125761010080835404028352916020019161063d565b820191906000526020600020905b81548152906001019060200180831161062057829003601f168201915b505050505081526020016002820154815260200160038201548152602001600482015481525050905090565b60606000805461067890613a53565b80601f01602080910402602001604051908101604052809291908181526020018280546106a490613a53565b80156106f15780601f106106c6576101008083540402835291602001916106f1565b820191906000526020600020905b8154815290600101906020018083116106d457829003601f168201915b5050505050905090565b600061070682611fe6565b610745576040517f08c379a000000000000000000000000000000000000000000000000000000000815260040161073c90613af6565b60405180910390fd5b6004600083815260200190815260200160002060009054906101000a900473ffffffffffffffffffffffffffffffffffffffff169050919050565b600061078b82610917565b90508073ffffffffffffffffffffffffffffffffffffffff168373ffffffffffffffffffffffffffffffffffffffff16036107fb576040517f08c379a00000000000000000000000000000000000000000000000000000000081526004016107f290613b88565b60405180910390fd5b8073ffffffffffffffffffffffffffffffffffffffff1661081a612052565b73ffffffffffffffffffffffffffffffffffffffff161480610849575061084881610843612052565b611ac0565b5b610888576040517f08c379a000000000000000000000000000000000000000000000000000000000815260040161087f90613c1a565b60405180910390fd5b610892838361205a565b505050565b6108a86108a2612052565b82612113565b6108e7576040517f08c379a00000000000000000000000000000000000000000000000000000000081526004016108de90613cac565b60405180910390fd5b6108f28383836121f1565b505050565b61091283838360405180602001604052806000815250610dbf565b505050565b6000806002600084815260200190815260200160002060009054906101000a900473ffffffffffffffffffffffffffffffffffffffff169050600073ffffffffffffffffffffffffffffffffffffffff168173ffffffffffffffffffffffffffffffffffffffff16036109bf576040517f08c379a00000000000000000000000000000000000000000000000000000000081526004016109b690613d3e565b60405180910390fd5b80915050919050565b60008073ffffffffffffffffffffffffffffffffffffffff168273ffffffffffffffffffffffffffffffffffffffff1603610a38576040517f08c379a0000000000000000000000000000000000000000000000000000000008152600401610a2f90613dd0565b60405180910390fd5b600360008373ffffffffffffffffffffffffffffffffffffffff1673ffffffffffffffffffffffffffffffffffffffff168152602001908152602001600020549050919050565b600f6020528060005260406000206000915090505481565b606060018054610aa690613a53565b80601f0160208091040260200160405190810160405280929190818152602001828054610ad290613a53565b8015610b1f5780601f10610af457610100808354040283529160200191610b1f565b820191906000526020600020905b815481529060010190602001808311610b0257829003601f168201915b5050505050905090565b600e602052806000526040600020600091509050806000015490806001018054610b5290613a53565b80601f0160208091040260200160405190810160405280929190818152602001828054610b7e90613a53565b8015610bcb5780601f10610ba057610100808354040283529160200191610bcb565b820191906000526020600020905b815481529060010190602001808311610bae57829003601f168201915b505050505090806002018054610be090613a53565b80601f0160208091040260200160405190810160405280929190818152602001828054610c0c90613a53565b8015610c595780601f10610c2e57610100808354040283529160200191610c59565b820191906000526020600020905b815481529060010190602001808311610c3c57829003601f168201915b5050505050908060030154908060040154908060050154905086565b610c87610c80612052565b838361244c565b5050565b6006806000018054610c9c90613a53565b80601f0160208091040260200160405190810160405280929190818152602001828054610cc890613a53565b8015610d155780601f10610cea57610100808354040283529160200191610d15565b820191906000526020600020905b815481529060010190602001808311610cf857829003601f168201915b505050505090806001018054610d2a90613a53565b80601f0160208091040260200160405190810160405280929190818152602001828054610d5690613a53565b8015610da35780601f10610d7857610100808354040283529160200191610da3565b820191906000526020600020905b815481529060010190602001808311610d8657829003601f168201915b5050505050908060020154908060030154908060040154905085565b610dd0610dca612052565b83612113565b610e0f576040517f08c379a0000000000000000000000000000000000000000000000000000000008152600401610e0690613cac565b60405180910390fd5b610e1b848484846125b8565b50505050565b6060600d805480602002602001604051908101604052809291908181526020016000905b82821015610fc357838290600052602060002090600602016040518060c001604052908160008201548152602001600182018054610e8290613a53565b80601f0160208091040260200160405190810160405280929190818152602001828054610eae90613a53565b8015610efb5780601f10610ed057610100808354040283529160200191610efb565b820191906000526020600020905b815481529060010190602001808311610ede57829003601f168201915b50505050508152602001600282018054610f1490613a53565b80601f0160208091040260200160405190810160405280929190818152602001828054610f4090613a53565b8015610f8d5780601f10610f6257610100808354040283529160200191610f8d565b820191906000526020600020905b815481529060010190602001808311610f7057829003601f168201915b50505050508152602001600382015481526020016004820154815260200160058201548152505081526020019060010190610e45565b50505050905090565b60606000600e60008481526020019081526020016000206040518060c00160405290816000820154815260200160018201805461100890613a53565b80601f016020809104026020016040519081016040528092919081815260200182805461103490613a53565b80156110815780601f1061105657610100808354040283529160200191611081565b820191906000526020600020905b81548152906001019060200180831161106457829003601f168201915b5050505050815260200160028201805461109a90613a53565b80601f01602080910402602001604051908101604052809291908181526020018280546110c690613a53565b80156111135780601f106110e857610100808354040283529160200191611113565b820191906000526020600020905b8154815290600101906020018083116110f657829003601f168201915b5050505050815260200160038201548152602001600482015481526020016005820154815250509050600061114b8260600151612614565b9050600061115c8360800151612614565b9050600061116d8460a00151612614565b905060006111b3856020015161118289612614565b876040015187878760405160200161119f969594939291906140d8565b604051602081830303815290604052612774565b90506000816040516020016111c891906141c9565b6040516020818303038152906040529050809650505050505050919050565b6111ef613046565b6000600f60003373ffffffffffffffffffffffffffffffffffffffff1673ffffffffffffffffffffffffffffffffffffffff16815260200190815260200160002054905060008111156113ae57600e60008281526020019081526020016000206040518060c00160405290816000820154815260200160018201805461127490613a53565b80601f01602080910402602001604051908101604052809291908181526020018280546112a090613a53565b80156112ed5780601f106112c2576101008083540402835291602001916112ed565b820191906000526020600020905b8154815290600101906020018083116112d057829003601f168201915b5050505050815260200160028201805461130690613a53565b80601f016020809104026020016040519081016040528092919081815260200182805461133290613a53565b801561137f5780601f106113545761010080835404028352916020019161137f565b820191906000526020600020905b81548152906001019060200180831161136257829003601f168201915b5050505050815260200160038201548152602001600482015481526020016005820154815250509150506113bc565b6113b6613046565b80925050505b90565b6000600f60003373ffffffffffffffffffffffffffffffffffffffff1673ffffffffffffffffffffffffffffffffffffffff1681526020019081526020016000205490506000600e600083815260200190815260200160002090506114d26040518060600160405280602a8152602001614f2a602a913982600101805461144590613a53565b80601f016020809104026020016040519081016040528092919081815260200182805461147190613a53565b80156114be5780601f10611493576101008083540402835291602001916114be565b820191906000526020600020905b8154815290600101906020018083116114a157829003601f168201915b5050505050836003015484600501546128ec565b6115aa6040518060400160405280601b81526020017f426f73732025732068617320257320485020616e6420257320414400000000008152506006600001805461151b90613a53565b80601f016020809104026020016040519081016040528092919081815260200182805461154790613a53565b80156115945780601f1061156957610100808354040283529160200191611594565b820191906000526020600020905b81548152906001019060200180831161157757829003601f168201915b50505050506006600201546006600401546128ec565b6064600b5442446115bb919061421a565b6115c5919061421a565b6115cf919061427d565b600b819055506116166040518060400160405280600781526020017f7365656420697300000000000000000000000000000000000000000000000000815250600b5461298e565b600081600301541161165d576040517f08c379a0000000000000000000000000000000000000000000000000000000008152600401611654906142fa565b60405180910390fd5b6000600660020154116116a5576040517f08c379a000000000000000000000000000000000000000000000000000000000815260040161169c9061438c565b60405180910390fd5b600f600b5410156117dd57600581600501546116c191906143ac565b60066002015410156117265760006006600201819055507fc2562b6c17188127c61ae777c0aaa6ec5c326c1d00a55b2e91c68e83d6a581b9336005836005015461170b91906143ac565b60405161171992919061443a565b60405180910390a16117d8565b6005816005015461173791906143ac565b6006600201546117479190614476565b60066002018190555061178e6040518060400160405280601781526020017f4d6567612041747461636b212044616d61676520782035000000000000000000815250612a2a565b7fc2562b6c17188127c61ae777c0aaa6ec5c326c1d00a55b2e91c68e83d6a581b933600583600501546117c191906143ac565b6040516117cf92919061443a565b60405180910390a15b611a0f565b6028600b54101561195357600381600501546117f991906143ac565b600660020154101561189c57600060066002018190555061184e6040518060400160405280601c81526020017f53757065722041747461636b2120547269706c652044616d6167652100000000815250612a2a565b7fc2562b6c17188127c61ae777c0aaa6ec5c326c1d00a55b2e91c68e83d6a581b9336003836005015461188191906143ac565b60405161188f9291906144f6565b60405180910390a161194e565b600381600501546118ad91906143ac565b6006600201546118bd9190614476565b6006600201819055506119046040518060400160405280601c81526020017f53757065722041747461636b2120547269706c652044616d6167652100000000815250612a2a565b7fc2562b6c17188127c61ae777c0aaa6ec5c326c1d00a55b2e91c68e83d6a581b9336003836005015461193791906143ac565b60405161194592919061457e565b60405180910390a15b611a0e565b806005015460066002015410156119b15760006006600201819055507fc2562b6c17188127c61ae777c0aaa6ec5c326c1d00a55b2e91c68e83d6a581b93382600501546040516119a4929190614606565b60405180910390a1611a0d565b80600501546006600201546119c69190614476565b6006600201819055507fc2562b6c17188127c61ae777c0aaa6ec5c326c1d00a55b2e91c68e83d6a581b9338260050154604051611a04929190614606565b60405180910390a15b5b5b600660040154816003015411611a2e5760008160030181905550611a4c565b6006600401548160030154611a439190614476565b81600301819055505b611a78604051806060016040528060228152602001614f54602291396006600201548360030154612ac3565b7f32bd565ee3f2cb5ddd742bbecd6048d3e9abe90b3827a40c2b72d232e71e3c9d336006600201548360030154604051611ab493929190614642565b60405180910390a15050565b6000600560008473ffffffffffffffffffffffffffffffffffffffff1673ffffffffffffffffffffffffffffffffffffffff16815260200190815260200160002060008373ffffffffffffffffffffffffffffffffffffffff1673ffffffffffffffffffffffffffffffffffffffff16815260200190815260200160002060009054906101000a900460ff16905092915050565b6000611b60600c612b62565b9050611b6c3382612b70565b6040518060c00160405280838152602001600d8481548110611b9157611b90614679565b5b90600052602060002090600602016001018054611bad90613a53565b80601f0160208091040260200160405190810160405280929190818152602001828054611bd990613a53565b8015611c265780601f10611bfb57610100808354040283529160200191611c26565b820191906000526020600020905b815481529060010190602001808311611c0957829003601f168201915b50505050508152602001600d8481548110611c4457611c43614679565b5b90600052602060002090600602016002018054611c6090613a53565b80601f0160208091040260200160405190810160405280929190818152602001828054611c8c90613a53565b8015611cd95780601f10611cae57610100808354040283529160200191611cd9565b820191906000526020600020905b815481529060010190602001808311611cbc57829003601f168201915b50505050508152602001600d8481548110611cf757611cf6614679565b5b9060005260206000209060060201600301548152602001600d8481548110611d2257611d21614679565b5b9060005260206000209060060201600401548152602001600d8481548110611d4d57611d4c614679565b5b906000526020600020906006020160050154815250600e6000838152602001908152602001600020600082015181600001556020820151816001019081611d949190614854565b506040820151816002019081611daa9190614854565b50606082015181600301556080820151816004015560a08201518160050155905050611def6040518060600160405280602e8152602001614fb6602e91398284612ac3565b80600f60003373ffffffffffffffffffffffffffffffffffffffff1673ffffffffffffffffffffffffffffffffffffffff16815260200190815260200160002081905550611e7b600f60003373ffffffffffffffffffffffffffffffffffffffff1673ffffffffffffffffffffffffffffffffffffffff16815260200190815260200160002054612b8e565b611e85600c611f66565b7f4bc303fd457a97b4691b9af582ce71868a3d258638c8d4f8c60988a0f0bfb8cd338284604051611eb893929190614642565b60405180910390a15050565b611f6084848484604051602401611ede9493929190614926565b6040516020818303038152906040527f8d142cdd000000000000000000000000000000000000000000000000000000007bffffffffffffffffffffffffffffffffffffffffffffffffffffffff19166020820180517bffffffffffffffffffffffffffffffffffffffffffffffffffffffff8381831617835250505050612c27565b50505050565b6001816000016000828254019250508190555050565b60007f01ffc9a7000000000000000000000000000000000000000000000000000000007bffffffffffffffffffffffffffffffffffffffffffffffffffffffff1916827bffffffffffffffffffffffffffffffffffffffffffffffffffffffff1916149050919050565b60008073ffffffffffffffffffffffffffffffffffffffff166002600084815260200190815260200160002060009054906101000a900473ffffffffffffffffffffffffffffffffffffffff1673ffffffffffffffffffffffffffffffffffffffff1614159050919050565b600033905090565b816004600083815260200190815260200160002060006101000a81548173ffffffffffffffffffffffffffffffffffffffff021916908373ffffffffffffffffffffffffffffffffffffffff160217905550808273ffffffffffffffffffffffffffffffffffffffff166120cd83610917565b73ffffffffffffffffffffffffffffffffffffffff167f8c5be1e5ebec7d5bd14f71427d1e84f3dd0314c0f7b2291e5b200ac8c7c3b92560405160405180910390a45050565b600061211e82611fe6565b61215d576040517f08c379a0000000000000000000000000000000000000000000000000000000008152600401612154906149f2565b60405180910390fd5b600061216883610917565b90508073ffffffffffffffffffffffffffffffffffffffff168473ffffffffffffffffffffffffffffffffffffffff1614806121d757508373ffffffffffffffffffffffffffffffffffffffff166121bf846106fb565b73ffffffffffffffffffffffffffffffffffffffff16145b806121e857506121e78185611ac0565b5b91505092915050565b8273ffffffffffffffffffffffffffffffffffffffff1661221182610917565b73ffffffffffffffffffffffffffffffffffffffff1614612267576040517f08c379a000000000000000000000000000000000000000000000000000000000815260040161225e90614a84565b60405180910390fd5b600073ffffffffffffffffffffffffffffffffffffffff168273ffffffffffffffffffffffffffffffffffffffff16036122d6576040517f08c379a00000000000000000000000000000000000000000000000000000000081526004016122cd90614b16565b60405180910390fd5b6122e1838383612c50565b6122ec60008261205a565b6001600360008573ffffffffffffffffffffffffffffffffffffffff1673ffffffffffffffffffffffffffffffffffffffff168152602001908152602001600020600082825461233c9190614476565b925050819055506001600360008473ffffffffffffffffffffffffffffffffffffffff1673ffffffffffffffffffffffffffffffffffffffff1681526020019081526020016000206000828254612393919061421a565b92505081905550816002600083815260200190815260200160002060006101000a81548173ffffffffffffffffffffffffffffffffffffffff021916908373ffffffffffffffffffffffffffffffffffffffff160217905550808273ffffffffffffffffffffffffffffffffffffffff168473ffffffffffffffffffffffffffffffffffffffff167fddf252ad1be2c89b69c2b068fc378daa952ba7f163c4a11628f55a4df523b3ef60405160405180910390a4505050565b8173ffffffffffffffffffffffffffffffffffffffff168373ffffffffffffffffffffffffffffffffffffffff16036124ba576040517f08c379a00000000000000000000000000000000000000000000000000000000081526004016124b190614b82565b60405180910390fd5b80600560008573ffffffffffffffffffffffffffffffffffffffff1673ffffffffffffffffffffffffffffffffffffffff16815260200190815260200160002060008473ffffffffffffffffffffffffffffffffffffffff1673ffffffffffffffffffffffffffffffffffffffff16815260200190815260200160002060006101000a81548160ff0219169083151502179055508173ffffffffffffffffffffffffffffffffffffffff168373ffffffffffffffffffffffffffffffffffffffff167f17307eab39ab6107e8899845ad3d59bd9653f200f220920489ca2b5937696c31836040516125ab9190613130565b60405180910390a3505050565b6125c38484846121f1565b6125cf84848484612c55565b61260e576040517f08c379a000000000000000000000000000000000000000000000000000000000815260040161260590614c14565b60405180910390fd5b50505050565b60606000820361265b576040518060400160405280600181526020017f3000000000000000000000000000000000000000000000000000000000000000815250905061276f565b600082905060005b6000821461268d57808061267690614c34565b915050600a826126869190614c7c565b9150612663565b60008167ffffffffffffffff8111156126a9576126a8613610565b5b6040519080825280601f01601f1916602001820160405280156126db5781602001600182028036833780820191505090505b5090505b60008514612768576001826126f49190614476565b9150600a85612703919061427d565b603061270f919061421a565b60f81b81838151811061272557612724614679565b5b60200101907effffffffffffffffffffffffffffffffffffffffffffffffffffffffffffff1916908160001a905350600a856127619190614c7c565b94506126df565b8093505050505b919050565b60606000825103612796576040518060200160405280600081525090506128e7565b6000604051806060016040528060408152602001614f7660409139905060006003600285516127c5919061421a565b6127cf9190614c7c565b60046127db91906143ac565b905060006020826127ec919061421a565b67ffffffffffffffff81111561280557612804613610565b5b6040519080825280601f01601f1916602001820160405280156128375781602001600182028036833780820191505090505b509050818152600183018586518101602084015b818310156128a6576003830192508251603f8160121c168501518253600182019150603f81600c1c168501518253600182019150603f8160061c168501518253600182019150603f811685015182536001820191505061284b565b6003895106600181146128c057600281146128d0576128db565b613d3d60f01b60028303526128db565b603d60f81b60018303525b50505050508093505050505b919050565b612988848484846040516024016129069493929190614cad565b6040516020818303038152906040527fd5cf17d0000000000000000000000000000000000000000000000000000000007bffffffffffffffffffffffffffffffffffffffffffffffffffffffff19166020820180517bffffffffffffffffffffffffffffffffffffffffffffffffffffffff8381831617835250505050612c27565b50505050565b612a2682826040516024016129a4929190614d00565b6040516020818303038152906040527f9710a9d0000000000000000000000000000000000000000000000000000000007bffffffffffffffffffffffffffffffffffffffffffffffffffffffff19166020820180517bffffffffffffffffffffffffffffffffffffffffffffffffffffffff8381831617835250505050612c27565b5050565b612ac081604051602401612a3e91906132dd565b6040516020818303038152906040527f41304fac000000000000000000000000000000000000000000000000000000007bffffffffffffffffffffffffffffffffffffffffffffffffffffffff19166020820180517bffffffffffffffffffffffffffffffffffffffffffffffffffffffff8381831617835250505050612c27565b50565b612b5d838383604051602401612adb93929190614d30565b6040516020818303038152906040527f969cdd03000000000000000000000000000000000000000000000000000000007bffffffffffffffffffffffffffffffffffffffffffffffffffffffff19166020820180517bffffffffffffffffffffffffffffffffffffffffffffffffffffffff8381831617835250505050612c27565b505050565b600081600001549050919050565b612b8a828260405180602001604052806000815250612ddc565b5050565b612c2481604051602401612ba291906134af565b6040516020818303038152906040527ff5b1bba9000000000000000000000000000000000000000000000000000000007bffffffffffffffffffffffffffffffffffffffffffffffffffffffff19166020820180517bffffffffffffffffffffffffffffffffffffffffffffffffffffffff8381831617835250505050612c27565b50565b60008151905060006a636f6e736f6c652e6c6f679050602083016000808483855afa5050505050565b505050565b6000612c768473ffffffffffffffffffffffffffffffffffffffff16612e37565b15612dcf578373ffffffffffffffffffffffffffffffffffffffff1663150b7a02612c9f612052565b8786866040518563ffffffff1660e01b8152600401612cc19493929190614dc3565b6020604051808303816000875af1925050508015612cfd57506040513d601f19601f82011682018060405250810190612cfa9190614e24565b60015b612d7f573d8060008114612d2d576040519150601f19603f3d011682016040523d82523d6000602084013e612d32565b606091505b506000815103612d77576040517f08c379a0000000000000000000000000000000000000000000000000000000008152600401612d6e90614c14565b60405180910390fd5b805181602001fd5b63150b7a0260e01b7bffffffffffffffffffffffffffffffffffffffffffffffffffffffff1916817bffffffffffffffffffffffffffffffffffffffffffffffffffffffff191614915050612dd4565b600190505b949350505050565b612de68383612e4a565b612df36000848484612c55565b612e32576040517f08c379a0000000000000000000000000000000000000000000000000000000008152600401612e2990614c14565b60405180910390fd5b505050565b600080823b905060008111915050919050565b600073ffffffffffffffffffffffffffffffffffffffff168273ffffffffffffffffffffffffffffffffffffffff1603612eb9576040517f08c379a0000000000000000000000000000000000000000000000000000000008152600401612eb090614e9d565b60405180910390fd5b612ec281611fe6565b15612f02576040517f08c379a0000000000000000000000000000000000000000000000000000000008152600401612ef990614f09565b60405180910390fd5b612f0e60008383612c50565b6001600360008473ffffffffffffffffffffffffffffffffffffffff1673ffffffffffffffffffffffffffffffffffffffff1681526020019081526020016000206000828254612f5e919061421a565b92505081905550816002600083815260200190815260200160002060006101000a81548173ffffffffffffffffffffffffffffffffffffffff021916908373ffffffffffffffffffffffffffffffffffffffff160217905550808273ffffffffffffffffffffffffffffffffffffffff16600073ffffffffffffffffffffffffffffffffffffffff167fddf252ad1be2c89b69c2b068fc378daa952ba7f163c4a11628f55a4df523b3ef60405160405180910390a45050565b6040518060a0016040528060608152602001606081526020016000815260200160008152602001600081525090565b6040518060c001604052806000815260200160608152602001606081526020016000815260200160008152602001600081525090565b6000604051905090565b600080fd5b600080fd5b60007fffffffff0000000000000000000000000000000000000000000000000000000082169050919050565b6130c581613090565b81146130d057600080fd5b50565b6000813590506130e2816130bc565b92915050565b6000602082840312156130fe576130fd613086565b5b600061310c848285016130d3565b91505092915050565b60008115159050919050565b61312a81613115565b82525050565b60006020820190506131456000830184613121565b92915050565b600081519050919050565b600082825260208201905092915050565b60005b8381101561318557808201518184015260208101905061316a565b60008484015250505050565b6000601f19601f8301169050919050565b60006131ad8261314b565b6131b78185613156565b93506131c7818560208601613167565b6131d081613191565b840191505092915050565b6000819050919050565b6131ee816131db565b82525050565b600060a083016000830151848203600086015261321182826131a2565b9150506020830151848203602086015261322b82826131a2565b915050604083015161324060408601826131e5565b50606083015161325360608601826131e5565b50608083015161326660808601826131e5565b508091505092915050565b6000602082019050818103600083015261328b81846131f4565b905092915050565b600082825260208201905092915050565b60006132af8261314b565b6132b98185613293565b93506132c9818560208601613167565b6132d281613191565b840191505092915050565b600060208201905081810360008301526132f781846132a4565b905092915050565b613308816131db565b811461331357600080fd5b50565b600081359050613325816132ff565b92915050565b60006020828403121561334157613340613086565b5b600061334f84828501613316565b91505092915050565b600073ffffffffffffffffffffffffffffffffffffffff82169050919050565b600061338382613358565b9050919050565b61339381613378565b82525050565b60006020820190506133ae600083018461338a565b92915050565b6133bd81613378565b81146133c857600080fd5b50565b6000813590506133da816133b4565b92915050565b600080604083850312156133f7576133f6613086565b5b6000613405858286016133cb565b925050602061341685828601613316565b9150509250929050565b60008060006060848603121561343957613438613086565b5b6000613447868287016133cb565b9350506020613458868287016133cb565b925050604061346986828701613316565b9150509250925092565b60006020828403121561348957613488613086565b5b6000613497848285016133cb565b91505092915050565b6134a9816131db565b82525050565b60006020820190506134c460008301846134a0565b92915050565b600060c0820190506134df60008301896134a0565b81810360208301526134f181886132a4565b9050818103604083015261350581876132a4565b905061351460608301866134a0565b61352160808301856134a0565b61352e60a08301846134a0565b979650505050505050565b61354281613115565b811461354d57600080fd5b50565b60008135905061355f81613539565b92915050565b6000806040838503121561357c5761357b613086565b5b600061358a858286016133cb565b925050602061359b85828601613550565b9150509250929050565b600060a08201905081810360008301526135bf81886132a4565b905081810360208301526135d381876132a4565b90506135e260408301866134a0565b6135ef60608301856134a0565b6135fc60808301846134a0565b9695505050505050565b600080fd5b600080fd5b7f4e487b7100000000000000000000000000000000000000000000000000000000600052604160045260246000fd5b61364882613191565b810181811067ffffffffffffffff8211171561366757613666613610565b5b80604052505050565b600061367a61307c565b9050613686828261363f565b919050565b600067ffffffffffffffff8211156136a6576136a5613610565b5b6136af82613191565b9050602081019050919050565b82818337600083830152505050565b60006136de6136d98461368b565b613670565b9050828152602081018484840111156136fa576136f961360b565b5b6137058482856136bc565b509392505050565b600082601f83011261372257613721613606565b5b81356137328482602086016136cb565b91505092915050565b6000806000806080858703121561375557613754613086565b5b6000613763878288016133cb565b9450506020613774878288016133cb565b935050604061378587828801613316565b925050606085013567ffffffffffffffff8111156137a6576137a561308b565b5b6137b28782880161370d565b91505092959194509250565b600081519050919050565b600082825260208201905092915050565b6000819050602082019050919050565b600060c08301600083015161380260008601826131e5565b506020830151848203602086015261381a82826131a2565b9150506040830151848203604086015261383482826131a2565b915050606083015161384960608601826131e5565b50608083015161385c60808601826131e5565b5060a083015161386f60a08601826131e5565b508091505092915050565b600061388683836137ea565b905092915050565b6000602082019050919050565b60006138a6826137be565b6138b081856137c9565b9350836020820285016138c2856137da565b8060005b858110156138fe57848403895281516138df858261387a565b94506138ea8361388e565b925060208a019950506001810190506138c6565b50829750879550505050505092915050565b6000602082019050818103600083015261392a818461389b565b905092915050565b600060c08301600083015161394a60008601826131e5565b506020830151848203602086015261396282826131a2565b9150506040830151848203604086015261397c82826131a2565b915050606083015161399160608601826131e5565b5060808301516139a460808601826131e5565b5060a08301516139b760a08601826131e5565b508091505092915050565b600060208201905081810360008301526139dc8184613932565b905092915050565b600080604083850312156139fb576139fa613086565b5b6000613a09858286016133cb565b9250506020613a1a858286016133cb565b9150509250929050565b7f4e487b7100000000000000000000000000000000000000000000000000000000600052602260045260246000fd5b60006002820490506001821680613a6b57607f821691505b602082108103613a7e57613a7d613a24565b5b50919050565b7f4552433732313a20617070726f76656420717565727920666f72206e6f6e657860008201527f697374656e7420746f6b656e0000000000000000000000000000000000000000602082015250565b6000613ae0602c83613293565b9150613aeb82613a84565b604082019050919050565b60006020820190508181036000830152613b0f81613ad3565b9050919050565b7f4552433732313a20617070726f76616c20746f2063757272656e74206f776e6560008201527f7200000000000000000000000000000000000000000000000000000000000000602082015250565b6000613b72602183613293565b9150613b7d82613b16565b604082019050919050565b60006020820190508181036000830152613ba181613b65565b9050919050565b7f4552433732313a20617070726f76652063616c6c6572206973206e6f74206f7760008201527f6e6572206e6f7220617070726f76656420666f7220616c6c0000000000000000602082015250565b6000613c04603883613293565b9150613c0f82613ba8565b604082019050919050565b60006020820190508181036000830152613c3381613bf7565b9050919050565b7f4552433732313a207472616e736665722063616c6c6572206973206e6f74206f60008201527f776e6572206e6f7220617070726f766564000000000000000000000000000000602082015250565b6000613c96603183613293565b9150613ca182613c3a565b604082019050919050565b60006020820190508181036000830152613cc581613c89565b9050919050565b7f4552433732313a206f776e657220717565727920666f72206e6f6e657869737460008201527f656e7420746f6b656e0000000000000000000000000000000000000000000000602082015250565b6000613d28602983613293565b9150613d3382613ccc565b604082019050919050565b60006020820190508181036000830152613d5781613d1b565b9050919050565b7f4552433732313a2062616c616e636520717565727920666f7220746865207a6560008201527f726f206164647265737300000000000000000000000000000000000000000000602082015250565b6000613dba602a83613293565b9150613dc582613d5e565b604082019050919050565b60006020820190508181036000830152613de981613dad565b9050919050565b600081905092915050565b7f7b226e616d65223a202200000000000000000000000000000000000000000000600082015250565b6000613e31600a83613df0565b9150613e3c82613dfb565b600a82019050919050565b6000613e528261314b565b613e5c8185613df0565b9350613e6c818560208601613167565b80840191505092915050565b7f202d2d204e465420233a20000000000000000000000000000000000000000000600082015250565b6000613eae600b83613df0565b9150613eb982613e78565b600b82019050919050565b7f222c20226465736372697074696f6e223a20225468697320697320616e204e4660008201527f542074686174206c6574732070656f706c6520706c617920696e20746865206760208201527f616d65204669676874204e6967687421222c2022696d616765223a2022000000604082015250565b6000613f46605d83613df0565b9150613f5182613ec4565b605d82019050919050565b7f222c202261747472696275746573223a205b207b202274726169745f7479706560008201527f223a20224865616c746820506f696e7473222c202276616c7565223a20000000602082015250565b6000613fb8603d83613df0565b9150613fc382613f5c565b603d82019050919050565b7f2c20226d61785f76616c7565223a000000000000000000000000000000000000600082015250565b6000614004600e83613df0565b915061400f82613fce565b600e82019050919050565b7f7d2c207b202274726169745f74797065223a202241747461636b2044616d616760008201527f65222c202276616c7565223a2000000000000000000000000000000000000000602082015250565b6000614076602d83613df0565b91506140818261401a565b602d82019050919050565b7f7d205d7d00000000000000000000000000000000000000000000000000000000600082015250565b60006140c2600483613df0565b91506140cd8261408c565b600482019050919050565b60006140e382613e24565b91506140ef8289613e47565b91506140fa82613ea1565b91506141068288613e47565b915061411182613f39565b915061411d8287613e47565b915061412882613fab565b91506141348286613e47565b915061413f82613ff7565b915061414b8285613e47565b915061415682614069565b91506141628284613e47565b915061416d826140b5565b9150819050979650505050505050565b7f646174613a6170706c69636174696f6e2f6a736f6e3b6261736536342c000000600082015250565b60006141b3601d83613df0565b91506141be8261417d565b601d82019050919050565b60006141d4826141a6565b91506141e08284613e47565b915081905092915050565b7f4e487b7100000000000000000000000000000000000000000000000000000000600052601160045260246000fd5b6000614225826131db565b9150614230836131db565b9250828201905080821115614248576142476141eb565b5b92915050565b7f4e487b7100000000000000000000000000000000000000000000000000000000600052601260045260246000fd5b6000614288826131db565b9150614293836131db565b9250826142a3576142a261424e565b5b828206905092915050565b7f4572726f723a206d757374206861766520485020746f2061747461636b2e0000600082015250565b60006142e4601e83613293565b91506142ef826142ae565b602082019050919050565b60006020820190508181036000830152614313816142d7565b9050919050565b7f4572726f723a20626f7373206d757374206861766520485020746f206174746160008201527f636b2e0000000000000000000000000000000000000000000000000000000000602082015250565b6000614376602383613293565b91506143818261431a565b604082019050919050565b600060208201905081810360008301526143a581614369565b9050919050565b60006143b7826131db565b91506143c2836131db565b92508282026143d0816131db565b915082820484148315176143e7576143e66141eb565b5b5092915050565b7f4d6567612041747461636b212044616d61676520782035210000000000000000600082015250565b6000614424601883613293565b915061442f826143ee565b602082019050919050565b600060608201905061444f600083018561338a565b818103602083015261446081614417565b905061446f60408301846134a0565b9392505050565b6000614481826131db565b915061448c836131db565b92508282039050818111156144a4576144a36141eb565b5b92915050565b7f53757065722041747461636b2120547269706c652044616d6167650000000000600082015250565b60006144e0601b83613293565b91506144eb826144aa565b602082019050919050565b600060608201905061450b600083018561338a565b818103602083015261451c816144d3565b905061452b60408301846134a0565b9392505050565b7f53757065722041747461636b2120547269706c652044616d6167652100000000600082015250565b6000614568601c83613293565b915061457382614532565b602082019050919050565b6000606082019050614593600083018561338a565b81810360208301526145a48161455b565b90506145b360408301846134a0565b9392505050565b7f5374616e646172642041747461636b0000000000000000000000000000000000600082015250565b60006145f0600f83613293565b91506145fb826145ba565b602082019050919050565b600060608201905061461b600083018561338a565b818103602083015261462c816145e3565b905061463b60408301846134a0565b9392505050565b6000606082019050614657600083018661338a565b61466460208301856134a0565b61467160408301846134a0565b949350505050565b7f4e487b7100000000000000000000000000000000000000000000000000000000600052603260045260246000fd5b60008190508160005260206000209050919050565b60006020601f8301049050919050565b600082821b905092915050565b60006008830261470a7fffffffffffffffffffffffffffffffffffffffffffffffffffffffffffffffff826146cd565b61471486836146cd565b95508019841693508086168417925050509392505050565b6000819050919050565b600061475161474c614747846131db565b61472c565b6131db565b9050919050565b6000819050919050565b61476b83614736565b61477f61477782614758565b8484546146da565b825550505050565b600090565b614794614787565b61479f818484614762565b505050565b5b818110156147c3576147b860008261478c565b6001810190506147a5565b5050565b601f821115614808576147d9816146a8565b6147e2846146bd565b810160208510156147f1578190505b6148056147fd856146bd565b8301826147a4565b50505b505050565b600082821c905092915050565b600061482b6000198460080261480d565b1980831691505092915050565b6000614844838361481a565b9150826002028217905092915050565b61485d8261314b565b67ffffffffffffffff81111561487657614875613610565b5b6148808254613a53565b61488b8282856147c7565b600060209050601f8311600181146148be57600084156148ac578287015190505b6148b68582614838565b86555061491e565b601f1984166148cc866146a8565b60005b828110156148f4578489015182556001820191506020850194506020810190506148cf565b86831015614911578489015161490d601f89168261481a565b8355505b6001600288020188555050505b505050505050565b6000608082019050818103600083015261494081876132a4565b9050818103602083015261495481866132a4565b905061496360408301856134a0565b818103606083015261497581846132a4565b905095945050505050565b7f4552433732313a206f70657261746f7220717565727920666f72206e6f6e657860008201527f697374656e7420746f6b656e0000000000000000000000000000000000000000602082015250565b60006149dc602c83613293565b91506149e782614980565b604082019050919050565b60006020820190508181036000830152614a0b816149cf565b9050919050565b7f4552433732313a207472616e73666572206f6620746f6b656e2074686174206960008201527f73206e6f74206f776e0000000000000000000000000000000000000000000000602082015250565b6000614a6e602983613293565b9150614a7982614a12565b604082019050919050565b60006020820190508181036000830152614a9d81614a61565b9050919050565b7f4552433732313a207472616e7366657220746f20746865207a65726f2061646460008201527f7265737300000000000000000000000000000000000000000000000000000000602082015250565b6000614b00602483613293565b9150614b0b82614aa4565b604082019050919050565b60006020820190508181036000830152614b2f81614af3565b9050919050565b7f4552433732313a20617070726f766520746f2063616c6c657200000000000000600082015250565b6000614b6c601983613293565b9150614b7782614b36565b602082019050919050565b60006020820190508181036000830152614b9b81614b5f565b9050919050565b7f4552433732313a207472616e7366657220746f206e6f6e20455243373231526560008201527f63656976657220696d706c656d656e7465720000000000000000000000000000602082015250565b6000614bfe603283613293565b9150614c0982614ba2565b604082019050919050565b60006020820190508181036000830152614c2d81614bf1565b9050919050565b6000614c3f826131db565b91507fffffffffffffffffffffffffffffffffffffffffffffffffffffffffffffffff8203614c7157614c706141eb565b5b600182019050919050565b6000614c87826131db565b9150614c92836131db565b925082614ca257614ca161424e565b5b828204905092915050565b60006080820190508181036000830152614cc781876132a4565b90508181036020830152614cdb81866132a4565b9050614cea60408301856134a0565b614cf760608301846134a0565b95945050505050565b60006040820190508181036000830152614d1a81856132a4565b9050614d2960208301846134a0565b9392505050565b60006060820190508181036000830152614d4a81866132a4565b9050614d5960208301856134a0565b614d6660408301846134a0565b949350505050565b600081519050919050565b600082825260208201905092915050565b6000614d9582614d6e565b614d9f8185614d79565b9350614daf818560208601613167565b614db881613191565b840191505092915050565b6000608082019050614dd8600083018761338a565b614de5602083018661338a565b614df260408301856134a0565b8181036060830152614e048184614d8a565b905095945050505050565b600081519050614e1e816130bc565b92915050565b600060208284031215614e3a57614e39613086565b5b6000614e4884828501614e0f565b91505092915050565b7f4552433732313a206d696e7420746f20746865207a65726f2061646472657373600082015250565b6000614e87602083613293565b9150614e9282614e51565b602082019050919050565b60006020820190508181036000830152614eb681614e7a565b9050919050565b7f4552433732313a20746f6b656e20616c7265616479206d696e74656400000000600082015250565b6000614ef3601c83613293565b9150614efe82614ebd565b602082019050919050565b60006020820190508181036000830152614f2281614ee6565b905091905056fe25732069732061626f757420746f2061747461636b2e2048617320257320485020616e64202573204144626f7373206870206e6f773a2025732e20706c61796572206870206e6f773a2025734142434445464748494a4b4c4d4e4f505152535455565758595a6162636465666768696a6b6c6d6e6f707172737475767778797a303132333435363738392b2f4d696e746564204e465420772f20746f6b656e496420257320616e6420636861726163746572496e646578202573a264697066735822122096553d3d6c2ccf942698a7687974f8198d5ae3eb176f04fa103a3f9eb68067ef64736f6c63430008110033446f6e6520696e697469616c6973696e6720257320772f2048502025732c20696d67202573",
  "linkReferences": {},
  "deployedLinkReferences": {}
}